{
  "_format": "hh-sol-artifact-1",
  "contractName": "SimFiatStable",
  "sourceName": "contracts/SimFiatStable.sol",
  "abi": [
    {
      "inputs": [],
      "stateMutability": "nonpayable",
      "type": "constructor"
    },
    {
      "anonymous": false,
      "inputs": [
        {
          "indexed": true,
          "internalType": "address",
          "name": "owner",
          "type": "address"
        },
        {
          "indexed": true,
          "internalType": "address",
          "name": "spender",
          "type": "address"
        },
        {
          "indexed": false,
          "internalType": "uint256",
          "name": "value",
          "type": "uint256"
        }
      ],
      "name": "Approval",
      "type": "event"
    },
    {
      "anonymous": false,
      "inputs": [
        {
          "indexed": true,
          "internalType": "address",
          "name": "to",
          "type": "address"
        },
        {
          "indexed": false,
          "internalType": "uint256",
          "name": "amount",
          "type": "uint256"
        },
        {
          "indexed": false,
          "internalType": "string",
          "name": "meta",
          "type": "string"
        }
      ],
      "name": "Minted",
      "type": "event"
    },
    {
      "anonymous": false,
      "inputs": [
        {
          "indexed": false,
          "internalType": "address",
          "name": "account",
          "type": "address"
        }
      ],
      "name": "Paused",
      "type": "event"
    },
    {
      "anonymous": false,
      "inputs": [
        {
          "indexed": false,
          "internalType": "bytes32",
          "name": "requestId",
          "type": "bytes32"
        },
        {
          "indexed": true,
          "internalType": "address",
          "name": "user",
          "type": "address"
        },
        {
          "indexed": false,
          "internalType": "uint256",
          "name": "amount",
          "type": "uint256"
        },
        {
          "indexed": false,
          "internalType": "string",
          "name": "meta",
          "type": "string"
        }
      ],
      "name": "RedeemFulfilled",
      "type": "event"
    },
    {
      "anonymous": false,
      "inputs": [
        {
          "indexed": true,
          "internalType": "address",
          "name": "user",
          "type": "address"
        },
        {
          "indexed": false,
          "internalType": "bytes32",
          "name": "requestId",
          "type": "bytes32"
        },
        {
          "indexed": false,
          "internalType": "uint256",
          "name": "amount",
          "type": "uint256"
        },
        {
          "indexed": false,
          "internalType": "string",
          "name": "meta",
          "type": "string"
        }
      ],
      "name": "RedeemRequested",
      "type": "event"
    },
    {
      "anonymous": false,
      "inputs": [
        {
          "indexed": true,
          "internalType": "bytes32",
          "name": "role",
          "type": "bytes32"
        },
        {
          "indexed": true,
          "internalType": "bytes32",
          "name": "previousAdminRole",
          "type": "bytes32"
        },
        {
          "indexed": true,
          "internalType": "bytes32",
          "name": "newAdminRole",
          "type": "bytes32"
        }
      ],
      "name": "RoleAdminChanged",
      "type": "event"
    },
    {
      "anonymous": false,
      "inputs": [
        {
          "indexed": true,
          "internalType": "bytes32",
          "name": "role",
          "type": "bytes32"
        },
        {
          "indexed": true,
          "internalType": "address",
          "name": "account",
          "type": "address"
        },
        {
          "indexed": true,
          "internalType": "address",
          "name": "sender",
          "type": "address"
        }
      ],
      "name": "RoleGranted",
      "type": "event"
    },
    {
      "anonymous": false,
      "inputs": [
        {
          "indexed": true,
          "internalType": "bytes32",
          "name": "role",
          "type": "bytes32"
        },
        {
          "indexed": true,
          "internalType": "address",
          "name": "account",
          "type": "address"
        },
        {
          "indexed": true,
          "internalType": "address",
          "name": "sender",
          "type": "address"
        }
      ],
      "name": "RoleRevoked",
      "type": "event"
    },
    {
      "anonymous": false,
      "inputs": [
        {
          "indexed": true,
          "internalType": "address",
          "name": "from",
          "type": "address"
        },
        {
          "indexed": true,
          "internalType": "address",
          "name": "to",
          "type": "address"
        },
        {
          "indexed": false,
          "internalType": "uint256",
          "name": "value",
          "type": "uint256"
        }
      ],
      "name": "Transfer",
      "type": "event"
    },
    {
      "anonymous": false,
      "inputs": [
        {
          "indexed": false,
          "internalType": "address",
          "name": "account",
          "type": "address"
        }
      ],
      "name": "Unpaused",
      "type": "event"
    },
    {
      "inputs": [],
      "name": "DEFAULT_ADMIN_ROLE",
      "outputs": [
        {
          "internalType": "bytes32",
          "name": "",
          "type": "bytes32"
        }
      ],
      "stateMutability": "view",
      "type": "function"
    },
    {
      "inputs": [],
      "name": "MINTER_ROLE",
      "outputs": [
        {
          "internalType": "bytes32",
          "name": "",
          "type": "bytes32"
        }
      ],
      "stateMutability": "view",
      "type": "function"
    },
    {
      "inputs": [],
      "name": "REDEEM_ROLE",
      "outputs": [
        {
          "internalType": "bytes32",
          "name": "",
          "type": "bytes32"
        }
      ],
      "stateMutability": "view",
      "type": "function"
    },
    {
      "inputs": [
        {
          "internalType": "address",
          "name": "owner",
          "type": "address"
        },
        {
          "internalType": "address",
          "name": "spender",
          "type": "address"
        }
      ],
      "name": "allowance",
      "outputs": [
        {
          "internalType": "uint256",
          "name": "",
          "type": "uint256"
        }
      ],
      "stateMutability": "view",
      "type": "function"
    },
    {
      "inputs": [
        {
          "internalType": "address",
          "name": "",
          "type": "address"
        }
      ],
      "name": "allowed",
      "outputs": [
        {
          "internalType": "bool",
          "name": "",
          "type": "bool"
        }
      ],
      "stateMutability": "view",
      "type": "function"
    },
    {
      "inputs": [
        {
          "internalType": "address",
          "name": "spender",
          "type": "address"
        },
        {
          "internalType": "uint256",
          "name": "amount",
          "type": "uint256"
        }
      ],
      "name": "approve",
      "outputs": [
        {
          "internalType": "bool",
          "name": "",
          "type": "bool"
        }
      ],
      "stateMutability": "nonpayable",
      "type": "function"
    },
    {
      "inputs": [
        {
          "internalType": "address",
          "name": "account",
          "type": "address"
        }
      ],
      "name": "balanceOf",
      "outputs": [
        {
          "internalType": "uint256",
          "name": "",
          "type": "uint256"
        }
      ],
      "stateMutability": "view",
      "type": "function"
    },
    {
      "inputs": [],
      "name": "decimals",
      "outputs": [
        {
          "internalType": "uint8",
          "name": "",
          "type": "uint8"
        }
      ],
      "stateMutability": "view",
      "type": "function"
    },
    {
      "inputs": [
        {
          "internalType": "address",
          "name": "spender",
          "type": "address"
        },
        {
          "internalType": "uint256",
          "name": "subtractedValue",
          "type": "uint256"
        }
      ],
      "name": "decreaseAllowance",
      "outputs": [
        {
          "internalType": "bool",
          "name": "",
          "type": "bool"
        }
      ],
      "stateMutability": "nonpayable",
      "type": "function"
    },
    {
      "inputs": [
        {
          "internalType": "bytes32",
          "name": "requestId",
          "type": "bytes32"
        },
        {
          "internalType": "address",
          "name": "user",
          "type": "address"
        },
        {
          "internalType": "uint256",
          "name": "amount",
          "type": "uint256"
        },
        {
          "internalType": "string",
          "name": "meta",
          "type": "string"
        }
      ],
      "name": "fulfillRedeem",
      "outputs": [],
      "stateMutability": "nonpayable",
      "type": "function"
    },
    {
      "inputs": [
        {
          "internalType": "bytes32",
          "name": "role",
          "type": "bytes32"
        }
      ],
      "name": "getRoleAdmin",
      "outputs": [
        {
          "internalType": "bytes32",
          "name": "",
          "type": "bytes32"
        }
      ],
      "stateMutability": "view",
      "type": "function"
    },
    {
      "inputs": [
        {
          "internalType": "address",
          "name": "who",
          "type": "address"
        }
      ],
      "name": "grantMinter",
      "outputs": [],
      "stateMutability": "nonpayable",
      "type": "function"
    },
    {
      "inputs": [
        {
          "internalType": "address",
          "name": "who",
          "type": "address"
        }
      ],
      "name": "grantRedeemer",
      "outputs": [],
      "stateMutability": "nonpayable",
      "type": "function"
    },
    {
      "inputs": [
        {
          "internalType": "bytes32",
          "name": "role",
          "type": "bytes32"
        },
        {
          "internalType": "address",
          "name": "account",
          "type": "address"
        }
      ],
      "name": "grantRole",
      "outputs": [],
      "stateMutability": "nonpayable",
      "type": "function"
    },
    {
      "inputs": [
        {
          "internalType": "bytes32",
          "name": "role",
          "type": "bytes32"
        },
        {
          "internalType": "address",
          "name": "account",
          "type": "address"
        }
      ],
      "name": "hasRole",
      "outputs": [
        {
          "internalType": "bool",
          "name": "",
          "type": "bool"
        }
      ],
      "stateMutability": "view",
      "type": "function"
    },
    {
      "inputs": [
        {
          "internalType": "address",
          "name": "spender",
          "type": "address"
        },
        {
          "internalType": "uint256",
          "name": "addedValue",
          "type": "uint256"
        }
      ],
      "name": "increaseAllowance",
      "outputs": [
        {
          "internalType": "bool",
          "name": "",
          "type": "bool"
        }
      ],
      "stateMutability": "nonpayable",
      "type": "function"
    },
    {
      "inputs": [
        {
          "internalType": "address",
          "name": "to",
          "type": "address"
        },
        {
          "internalType": "uint256",
          "name": "amount",
          "type": "uint256"
        },
        {
          "internalType": "string",
          "name": "meta",
          "type": "string"
        }
      ],
      "name": "mint",
      "outputs": [],
      "stateMutability": "nonpayable",
      "type": "function"
    },
    {
      "inputs": [],
      "name": "name",
      "outputs": [
        {
          "internalType": "string",
          "name": "",
          "type": "string"
        }
      ],
      "stateMutability": "view",
      "type": "function"
    },
    {
      "inputs": [],
      "name": "pause",
      "outputs": [],
      "stateMutability": "nonpayable",
      "type": "function"
    },
    {
      "inputs": [],
      "name": "paused",
      "outputs": [
        {
          "internalType": "bool",
          "name": "",
          "type": "bool"
        }
      ],
      "stateMutability": "view",
      "type": "function"
    },
    {
      "inputs": [
        {
          "internalType": "bytes32",
          "name": "",
          "type": "bytes32"
        }
      ],
      "name": "redeemFulfilled",
      "outputs": [
        {
          "internalType": "bool",
          "name": "",
          "type": "bool"
        }
      ],
      "stateMutability": "view",
      "type": "function"
    },
    {
      "inputs": [
        {
          "internalType": "bytes32",
          "name": "role",
          "type": "bytes32"
        },
        {
          "internalType": "address",
          "name": "account",
          "type": "address"
        }
      ],
      "name": "renounceRole",
      "outputs": [],
      "stateMutability": "nonpayable",
      "type": "function"
    },
    {
      "inputs": [
        {
          "internalType": "bytes32",
          "name": "requestId",
          "type": "bytes32"
        },
        {
          "internalType": "uint256",
          "name": "amount",
          "type": "uint256"
        },
        {
          "internalType": "string",
          "name": "meta",
          "type": "string"
        }
      ],
      "name": "requestRedeem",
      "outputs": [],
      "stateMutability": "nonpayable",
      "type": "function"
    },
    {
      "inputs": [
        {
          "internalType": "bytes32",
          "name": "role",
          "type": "bytes32"
        },
        {
          "internalType": "address",
          "name": "account",
          "type": "address"
        }
      ],
      "name": "revokeRole",
      "outputs": [],
      "stateMutability": "nonpayable",
      "type": "function"
    },
    {
      "inputs": [
        {
          "internalType": "address",
          "name": "who",
          "type": "address"
        },
        {
          "internalType": "bool",
          "name": "ok",
          "type": "bool"
        }
      ],
      "name": "setAllowed",
      "outputs": [],
      "stateMutability": "nonpayable",
      "type": "function"
    },
    {
      "inputs": [
        {
          "internalType": "bytes4",
          "name": "interfaceId",
          "type": "bytes4"
        }
      ],
      "name": "supportsInterface",
      "outputs": [
        {
          "internalType": "bool",
          "name": "",
          "type": "bool"
        }
      ],
      "stateMutability": "view",
      "type": "function"
    },
    {
      "inputs": [],
      "name": "symbol",
      "outputs": [
        {
          "internalType": "string",
          "name": "",
          "type": "string"
        }
      ],
      "stateMutability": "view",
      "type": "function"
    },
    {
      "inputs": [],
      "name": "totalSupply",
      "outputs": [
        {
          "internalType": "uint256",
          "name": "",
          "type": "uint256"
        }
      ],
      "stateMutability": "view",
      "type": "function"
    },
    {
      "inputs": [
        {
          "internalType": "address",
          "name": "to",
          "type": "address"
        },
        {
          "internalType": "uint256",
          "name": "amount",
          "type": "uint256"
        }
      ],
      "name": "transfer",
      "outputs": [
        {
          "internalType": "bool",
          "name": "",
          "type": "bool"
        }
      ],
      "stateMutability": "nonpayable",
      "type": "function"
    },
    {
      "inputs": [
        {
          "internalType": "address",
          "name": "from",
          "type": "address"
        },
        {
          "internalType": "address",
          "name": "to",
          "type": "address"
        },
        {
          "internalType": "uint256",
          "name": "amount",
          "type": "uint256"
        }
      ],
      "name": "transferFrom",
      "outputs": [
        {
          "internalType": "bool",
          "name": "",
          "type": "bool"
        }
      ],
      "stateMutability": "nonpayable",
      "type": "function"
    },
    {
      "inputs": [],
      "name": "unpause",
      "outputs": [],
      "stateMutability": "nonpayable",
      "type": "function"
    }
  ],
  "bytecode": "0x60806040523480156200001157600080fd5b506040518060400160405280600781526020016614da5b519a585d60ca1b815250604051806040016040528060058152602001641cd192505560da1b81525081600390816200006191906200024c565b5060046200007082826200024c565b50506005805460ff19169055506200008a60003362000102565b620000b67f9f2df0fed2c77648de5860a4cc508cd0818c85b8b8a1ab4ceeef8d981c8956a63362000102565b620000e27f23ab158aaf38f3699bf4266a91ca312794fa7ad6ee01e00dd03738daa058501e3362000102565b336000908152600760205260409020805460ff1916600117905562000318565b60008281526006602090815260408083206001600160a01b038516845290915290205460ff16620001a35760008281526006602090815260408083206001600160a01b03851684529091529020805460ff19166001179055620001623390565b6001600160a01b0316816001600160a01b0316837f2f8788117e7eff1d82e926ec794901d17c78024a50270940304540a733656f0d60405160405180910390a45b5050565b634e487b7160e01b600052604160045260246000fd5b600181811c90821680620001d257607f821691505b602082108103620001f357634e487b7160e01b600052602260045260246000fd5b50919050565b601f8211156200024757600081815260208120601f850160051c81016020861015620002225750805b601f850160051c820191505b8181101562000243578281556001016200022e565b5050505b505050565b81516001600160401b03811115620002685762000268620001a7565b6200028081620002798454620001bd565b84620001f9565b602080601f831160018114620002b857600084156200029f5750858301515b600019600386901b1c1916600185901b17855562000243565b600085815260208120601f198616915b82811015620002e957888601518255948401946001909101908401620002c8565b5085821015620003085787850151600019600388901b60f8161c191681555b5050505050600190811b01905550565b6119bc80620003286000396000f3fe608060405234801561001057600080fd5b50600436106101e55760003560e01c806370a082311161010f578063a9059cbb116100a2578063d547741f11610071578063d547741f14610429578063d57e64651461043c578063d63a8e111461044f578063dd62ed3e1461047257600080fd5b8063a9059cbb146103c9578063ab1f91fb146103dc578063d3fc9864146103ef578063d53913931461040257600080fd5b806391d14854116100de57806391d148541461039357806395d89b41146103a6578063a217fddf146103ae578063a457c2d7146103b657600080fd5b806370a0823114610318578063756b812514610341578063772576c7146103645780638456cb591461038b57600080fd5b80632f2ff15d116101875780633f4ba83a116101565780633f4ba83a146102df5780634697f05d146102e75780635c975abb146102fa5780636778b7451461030557600080fd5b80632f2ff15d14610297578063313ce567146102aa57806336568abe146102b957806339509351146102cc57600080fd5b806318160ddd116101c357806318160ddd1461023a57806323b872dd1461024c578063248a9ca31461025f578063261707fa1461028257600080fd5b806301ffc9a7146101ea57806306fdde0314610212578063095ea7b314610227575b600080fd5b6101fd6101f83660046114cf565b610485565b60405190151581526020015b60405180910390f35b61021a6104bc565b604051610209919061151d565b6101fd61023536600461156c565b61054e565b6002545b604051908152602001610209565b6101fd61025a366004611596565b610566565b61023e61026d3660046115d2565b60009081526006602052604090206001015490565b6102956102903660046115eb565b61058a565b005b6102956102a5366004611606565b6105c3565b60405160128152602001610209565b6102956102c7366004611606565b6105ed565b6101fd6102da36600461156c565b61066c565b61029561068e565b6102956102f5366004611632565b6106a4565b60055460ff166101fd565b6102956103133660046116b7565b6106db565b61023e6103263660046115eb565b6001600160a01b031660009081526020819052604090205490565b6101fd61034f3660046115d2565b60086020526000908152604090205460ff1681565b61023e7f23ab158aaf38f3699bf4266a91ca312794fa7ad6ee01e00dd03738daa058501e81565b6102956107ca565b6101fd6103a1366004611606565b6107dd565b61021a610808565b61023e600081565b6101fd6103c436600461156c565b610817565b6101fd6103d736600461156c565b610892565b6102956103ea3660046115eb565b6108a0565b6102956103fd36600461171f565b6108d5565b61023e7f9f2df0fed2c77648de5860a4cc508cd0818c85b8b8a1ab4ceeef8d981c8956a681565b610295610437366004611606565b6109bd565b61029561044a366004611779565b6109e2565b6101fd61045d3660046115eb565b60076020526000908152604090205460ff1681565b61023e6104803660046117b4565b610a85565b60006001600160e01b03198216637965db0b60e01b14806104b657506301ffc9a760e01b6001600160e01b03198316145b92915050565b6060600380546104cb906117de565b80601f01602080910402602001604051908101604052809291908181526020018280546104f7906117de565b80156105445780601f1061051957610100808354040283529160200191610544565b820191906000526020600020905b81548152906001019060200180831161052757829003601f168201915b5050505050905090565b60003361055c818585610ab0565b5060019392505050565b600033610574858285610bd4565b61057f858585610c4e565b506001949350505050565b600061059581610dfd565b6105bf7f9f2df0fed2c77648de5860a4cc508cd0818c85b8b8a1ab4ceeef8d981c8956a683610e07565b5050565b6000828152600660205260409020600101546105de81610dfd565b6105e88383610e07565b505050565b6001600160a01b03811633146106625760405162461bcd60e51b815260206004820152602f60248201527f416363657373436f6e74726f6c3a2063616e206f6e6c792072656e6f756e636560448201526e103937b632b9903337b91039b2b63360891b60648201526084015b60405180910390fd5b6105bf8282610e8d565b60003361055c81858561067f8383610a85565b610689919061182e565b610ab0565b600061069981610dfd565b6106a1610ef4565b50565b60006106af81610dfd565b506001600160a01b03919091166000908152600760205260409020805460ff1916911515919091179055565b7f23ab158aaf38f3699bf4266a91ca312794fa7ad6ee01e00dd03738daa058501e61070581610dfd565b60008681526008602052604090205460ff16156107585760405162461bcd60e51b8152602060048201526011602482015270185b1c9958591e48199d5b199a5b1b1959607a1b6044820152606401610659565b6000868152600860205260409020805460ff1916600117905561077b8585610f46565b846001600160a01b03167f94100ceb610ef41f733d84ad20ceacf49548a8cb5b6f077f8be89b2cc7e5eeed878686866040516107ba949392919061186a565b60405180910390a2505050505050565b60006107d581610dfd565b6106a1611084565b60009182526006602090815260408084206001600160a01b0393909316845291905290205460ff1690565b6060600480546104cb906117de565b600033816108258286610a85565b9050838110156108855760405162461bcd60e51b815260206004820152602560248201527f45524332303a2064656372656173656420616c6c6f77616e63652062656c6f77604482015264207a65726f60d81b6064820152608401610659565b61057f8286868403610ab0565b60003361055c818585610c4e565b60006108ab81610dfd565b6105bf7f23ab158aaf38f3699bf4266a91ca312794fa7ad6ee01e00dd03738daa058501e83610e07565b7f9f2df0fed2c77648de5860a4cc508cd0818c85b8b8a1ab4ceeef8d981c8956a66108ff81610dfd565b6109076110c1565b6001600160a01b03851660009081526007602052604090205460ff166109675760405162461bcd60e51b81526020600482015260156024820152741c9958da5c1a595b9d081b9bdd08185b1b1bddd959605a1b6044820152606401610659565b6109718585611109565b846001600160a01b03167fe7cd4ce7f2a465edc730269a1305e8a48bad821e8fb7e152ec413829c01a53c48585856040516109ae93929190611894565b60405180910390a25050505050565b6000828152600660205260409020600101546109d881610dfd565b6105e88383610e8d565b6109ea6110c1565b33600090815260208190526040902054831115610a385760405162461bcd60e51b815260206004820152600c60248201526b1a5b9cdd59999a58da595b9d60a21b6044820152606401610659565b336001600160a01b03167f34ddac5bb79b3acc76276dd0abd7f5bff0193364edaf179fbecfedf897f5a0ab85858585604051610a77949392919061186a565b60405180910390a250505050565b6001600160a01b03918216600090815260016020908152604080832093909416825291909152205490565b6001600160a01b038316610b125760405162461bcd60e51b8152602060048201526024808201527f45524332303a20617070726f76652066726f6d20746865207a65726f206164646044820152637265737360e01b6064820152608401610659565b6001600160a01b038216610b735760405162461bcd60e51b815260206004820152602260248201527f45524332303a20617070726f766520746f20746865207a65726f206164647265604482015261737360f01b6064820152608401610659565b6001600160a01b0383811660008181526001602090815260408083209487168084529482529182902085905590518481527f8c5be1e5ebec7d5bd14f71427d1e84f3dd0314c0f7b2291e5b200ac8c7c3b925910160405180910390a3505050565b6000610be08484610a85565b90506000198114610c485781811015610c3b5760405162461bcd60e51b815260206004820152601d60248201527f45524332303a20696e73756666696369656e7420616c6c6f77616e63650000006044820152606401610659565b610c488484848403610ab0565b50505050565b6001600160a01b038316610cb25760405162461bcd60e51b815260206004820152602560248201527f45524332303a207472616e736665722066726f6d20746865207a65726f206164604482015264647265737360d81b6064820152608401610659565b6001600160a01b038216610d145760405162461bcd60e51b815260206004820152602360248201527f45524332303a207472616e7366657220746f20746865207a65726f206164647260448201526265737360e81b6064820152608401610659565b610d1f8383836111d4565b6001600160a01b03831660009081526020819052604090205481811015610d975760405162461bcd60e51b815260206004820152602660248201527f45524332303a207472616e7366657220616d6f756e7420657863656564732062604482015265616c616e636560d01b6064820152608401610659565b6001600160a01b03848116600081815260208181526040808320878703905593871680835291849020805487019055925185815290927fddf252ad1be2c89b69c2b068fc378daa952ba7f163c4a11628f55a4df523b3ef910160405180910390a3610c48565b6106a18133611278565b610e1182826107dd565b6105bf5760008281526006602090815260408083206001600160a01b03851684529091529020805460ff19166001179055610e493390565b6001600160a01b0316816001600160a01b0316837f2f8788117e7eff1d82e926ec794901d17c78024a50270940304540a733656f0d60405160405180910390a45050565b610e9782826107dd565b156105bf5760008281526006602090815260408083206001600160a01b0385168085529252808320805460ff1916905551339285917ff6391f5c32d9c69d2a47ea670b442974b53935d1edc7fd64eb21e047a839171b9190a45050565b610efc6112d1565b6005805460ff191690557f5db9ee0a495bf2e6ff9c91a7834c1ba4fdd244a5e8aa4e537bd38aeae4b073aa335b6040516001600160a01b03909116815260200160405180910390a1565b6001600160a01b038216610fa65760405162461bcd60e51b815260206004820152602160248201527f45524332303a206275726e2066726f6d20746865207a65726f206164647265736044820152607360f81b6064820152608401610659565b610fb2826000836111d4565b6001600160a01b038216600090815260208190526040902054818110156110265760405162461bcd60e51b815260206004820152602260248201527f45524332303a206275726e20616d6f756e7420657863656564732062616c616e604482015261636560f01b6064820152608401610659565b6001600160a01b0383166000818152602081815260408083208686039055600280548790039055518581529192917fddf252ad1be2c89b69c2b068fc378daa952ba7f163c4a11628f55a4df523b3ef910160405180910390a3505050565b61108c6110c1565b6005805460ff191660011790557f62e78cea01bee320cd4e420270b5ea74000d11b0c9f74754ebdbfc544b05a258610f293390565b60055460ff16156111075760405162461bcd60e51b815260206004820152601060248201526f14185d5cd8589b194e881c185d5cd95960821b6044820152606401610659565b565b6001600160a01b03821661115f5760405162461bcd60e51b815260206004820152601f60248201527f45524332303a206d696e7420746f20746865207a65726f2061646472657373006044820152606401610659565b61116b600083836111d4565b806002600082825461117d919061182e565b90915550506001600160a01b038216600081815260208181526040808320805486019055518481527fddf252ad1be2c89b69c2b068fc378daa952ba7f163c4a11628f55a4df523b3ef910160405180910390a35050565b6001600160a01b038316158015906111f457506001600160a01b03821615155b156105e8576001600160a01b03831660009081526007602052604090205460ff16801561123957506001600160a01b03821660009081526007602052604090205460ff165b6105e85760405162461bcd60e51b815260206004820152601060248201526f1d1c985b9cd9995c88189b1bd8dad95960821b6044820152606401610659565b61128282826107dd565b6105bf5761128f8161131a565b61129a83602061132c565b6040516020016112ab9291906118b7565b60408051601f198184030181529082905262461bcd60e51b82526106599160040161151d565b60055460ff166111075760405162461bcd60e51b815260206004820152601460248201527314185d5cd8589b194e881b9bdd081c185d5cd95960621b6044820152606401610659565b60606104b66001600160a01b03831660145b6060600061133b83600261192c565b61134690600261182e565b67ffffffffffffffff81111561135e5761135e611943565b6040519080825280601f01601f191660200182016040528015611388576020820181803683370190505b509050600360fc1b816000815181106113a3576113a3611959565b60200101906001600160f81b031916908160001a905350600f60fb1b816001815181106113d2576113d2611959565b60200101906001600160f81b031916908160001a90535060006113f684600261192c565b61140190600161182e565b90505b6001811115611479576f181899199a1a9b1b9c1cb0b131b232b360811b85600f166010811061143557611435611959565b1a60f81b82828151811061144b5761144b611959565b60200101906001600160f81b031916908160001a90535060049490941c936114728161196f565b9050611404565b5083156114c85760405162461bcd60e51b815260206004820181905260248201527f537472696e67733a20686578206c656e67746820696e73756666696369656e746044820152606401610659565b9392505050565b6000602082840312156114e157600080fd5b81356001600160e01b0319811681146114c857600080fd5b60005b838110156115145781810151838201526020016114fc565b50506000910152565b602081526000825180602084015261153c8160408501602087016114f9565b601f01601f19169190910160400192915050565b80356001600160a01b038116811461156757600080fd5b919050565b6000806040838503121561157f57600080fd5b61158883611550565b946020939093013593505050565b6000806000606084860312156115ab57600080fd5b6115b484611550565b92506115c260208501611550565b9150604084013590509250925092565b6000602082840312156115e457600080fd5b5035919050565b6000602082840312156115fd57600080fd5b6114c882611550565b6000806040838503121561161957600080fd5b8235915061162960208401611550565b90509250929050565b6000806040838503121561164557600080fd5b61164e83611550565b91506020830135801515811461166357600080fd5b809150509250929050565b60008083601f84011261168057600080fd5b50813567ffffffffffffffff81111561169857600080fd5b6020830191508360208285010111156116b057600080fd5b9250929050565b6000806000806000608086880312156116cf57600080fd5b853594506116df60208701611550565b935060408601359250606086013567ffffffffffffffff81111561170257600080fd5b61170e8882890161166e565b969995985093965092949392505050565b6000806000806060858703121561173557600080fd5b61173e85611550565b935060208501359250604085013567ffffffffffffffff81111561176157600080fd5b61176d8782880161166e565b95989497509550505050565b6000806000806060858703121561178f57600080fd5b8435935060208501359250604085013567ffffffffffffffff81111561176157600080fd5b600080604083850312156117c757600080fd5b6117d083611550565b915061162960208401611550565b600181811c908216806117f257607f821691505b60208210810361181257634e487b7160e01b600052602260045260246000fd5b50919050565b634e487b7160e01b600052601160045260246000fd5b808201808211156104b6576104b6611818565b81835281816020850137506000828201602090810191909152601f909101601f19169091010190565b84815283602082015260606040820152600061188a606083018486611841565b9695505050505050565b8381526040602082015260006118ae604083018486611841565b95945050505050565b7f416363657373436f6e74726f6c3a206163636f756e74200000000000000000008152600083516118ef8160178501602088016114f9565b7001034b99036b4b9b9b4b733903937b6329607d1b60179184019182015283516119208160288401602088016114f9565b01602801949350505050565b80820281158282048414176104b6576104b6611818565b634e487b7160e01b600052604160045260246000fd5b634e487b7160e01b600052603260045260246000fd5b60008161197e5761197e611818565b50600019019056fea2646970667358221220018ffb892f4ad0a2776e3548ca2c1ee6b75436d471a25a38a1b82ca153d81c4264736f6c63430008140033",
  "linkReferences": {},
  "deployedLinkReferences": {}
}